{
  "_format": "hh-sol-artifact-1",
  "contractName": "Socialpilot",
  "sourceName": "contracts/socialpilot.sol",
  "abi": [
    {
      "inputs": [],
      "stateMutability": "nonpayable",
      "type": "constructor"
    },
    {
      "anonymous": false,
      "inputs": [
        {
          "indexed": true,
          "internalType": "address",
          "name": "owner",
          "type": "address"
        },
        {
          "indexed": true,
          "internalType": "address",
          "name": "approved",
          "type": "address"
        },
        {
          "indexed": true,
          "internalType": "uint256",
          "name": "tokenId",
          "type": "uint256"
        }
      ],
      "name": "Approval",
      "type": "event"
    },
    {
      "anonymous": false,
      "inputs": [
        {
          "indexed": true,
          "internalType": "address",
          "name": "owner",
          "type": "address"
        },
        {
          "indexed": true,
          "internalType": "address",
          "name": "operator",
          "type": "address"
        },
        {
          "indexed": false,
          "internalType": "bool",
          "name": "approved",
          "type": "bool"
        }
      ],
      "name": "ApprovalForAll",
      "type": "event"
    },
    {
      "anonymous": false,
      "inputs": [
        {
          "indexed": false,
          "internalType": "uint256",
          "name": "id",
          "type": "uint256"
        },
        {
          "indexed": false,
          "internalType": "string",
          "name": "hash",
          "type": "string"
        },
        {
          "indexed": false,
          "internalType": "uint256",
          "name": "tipAmount",
          "type": "uint256"
        },
        {
          "indexed": false,
          "internalType": "address payable",
          "name": "author",
          "type": "address"
        }
      ],
      "name": "PostCreated",
      "type": "event"
    },
    {
      "anonymous": false,
      "inputs": [
        {
          "indexed": false,
          "internalType": "uint256",
          "name": "id",
          "type": "uint256"
        },
        {
          "indexed": false,
          "internalType": "string",
          "name": "hash",
          "type": "string"
        },
        {
          "indexed": false,
          "internalType": "uint256",
          "name": "tipAmount",
          "type": "uint256"
        },
        {
          "indexed": false,
          "internalType": "address payable",
          "name": "author",
          "type": "address"
        }
      ],
      "name": "PostTipped",
      "type": "event"
    },
    {
      "anonymous": false,
      "inputs": [
        {
          "indexed": true,
          "internalType": "address",
          "name": "from",
          "type": "address"
        },
        {
          "indexed": true,
          "internalType": "address",
          "name": "to",
          "type": "address"
        },
        {
          "indexed": true,
          "internalType": "uint256",
          "name": "tokenId",
          "type": "uint256"
        }
      ],
      "name": "Transfer",
      "type": "event"
    },
    {
      "inputs": [
        {
          "internalType": "address",
          "name": "to",
          "type": "address"
        },
        {
          "internalType": "uint256",
          "name": "tokenId",
          "type": "uint256"
        }
      ],
      "name": "approve",
      "outputs": [],
      "stateMutability": "nonpayable",
      "type": "function"
    },
    {
      "inputs": [
        {
          "internalType": "address",
          "name": "owner",
          "type": "address"
        }
      ],
      "name": "balanceOf",
      "outputs": [
        {
          "internalType": "uint256",
          "name": "",
          "type": "uint256"
        }
      ],
      "stateMutability": "view",
      "type": "function"
    },
    {
      "inputs": [],
      "name": "getAllPosts",
      "outputs": [
        {
          "components": [
            {
              "internalType": "uint256",
              "name": "id",
              "type": "uint256"
            },
            {
              "internalType": "string",
              "name": "hash",
              "type": "string"
            },
            {
              "internalType": "uint256",
              "name": "tipAmount",
              "type": "uint256"
            },
            {
              "internalType": "address payable",
              "name": "author",
              "type": "address"
            }
          ],
          "internalType": "struct Socialpilot.Post[]",
          "name": "_posts",
          "type": "tuple[]"
        }
      ],
      "stateMutability": "view",
      "type": "function"
    },
    {
      "inputs": [
        {
          "internalType": "uint256",
          "name": "tokenId",
          "type": "uint256"
        }
      ],
      "name": "getApproved",
      "outputs": [
        {
          "internalType": "address",
          "name": "",
          "type": "address"
        }
      ],
      "stateMutability": "view",
      "type": "function"
    },
    {
      "inputs": [
        {
          "internalType": "address",
          "name": "owner",
          "type": "address"
        },
        {
          "internalType": "address",
          "name": "operator",
          "type": "address"
        }
      ],
      "name": "isApprovedForAll",
      "outputs": [
        {
          "internalType": "bool",
          "name": "",
          "type": "bool"
        }
      ],
      "stateMutability": "view",
      "type": "function"
    },
    {
      "inputs": [],
      "name": "name",
      "outputs": [
        {
          "internalType": "string",
          "name": "",
          "type": "string"
        }
      ],
      "stateMutability": "view",
      "type": "function"
    },
    {
      "inputs": [
        {
          "internalType": "uint256",
          "name": "tokenId",
          "type": "uint256"
        }
      ],
      "name": "ownerOf",
      "outputs": [
        {
          "internalType": "address",
          "name": "",
          "type": "address"
        }
      ],
      "stateMutability": "view",
      "type": "function"
    },
    {
      "inputs": [],
      "name": "postCount",
      "outputs": [
        {
          "internalType": "uint256",
          "name": "",
          "type": "uint256"
        }
      ],
      "stateMutability": "view",
      "type": "function"
    },
    {
      "inputs": [
        {
          "internalType": "uint256",
          "name": "",
          "type": "uint256"
        }
      ],
      "name": "posts",
      "outputs": [
        {
          "internalType": "uint256",
          "name": "id",
          "type": "uint256"
        },
        {
          "internalType": "string",
          "name": "hash",
          "type": "string"
        },
        {
          "internalType": "uint256",
          "name": "tipAmount",
          "type": "uint256"
        },
        {
          "internalType": "address payable",
          "name": "author",
          "type": "address"
        }
      ],
      "stateMutability": "view",
      "type": "function"
    },
    {
      "inputs": [
        {
          "internalType": "address",
          "name": "from",
          "type": "address"
        },
        {
          "internalType": "address",
          "name": "to",
          "type": "address"
        },
        {
          "internalType": "uint256",
          "name": "tokenId",
          "type": "uint256"
        }
      ],
      "name": "safeTransferFrom",
      "outputs": [],
      "stateMutability": "nonpayable",
      "type": "function"
    },
    {
      "inputs": [
        {
          "internalType": "address",
          "name": "from",
          "type": "address"
        },
        {
          "internalType": "address",
          "name": "to",
          "type": "address"
        },
        {
          "internalType": "uint256",
          "name": "tokenId",
          "type": "uint256"
        },
        {
          "internalType": "bytes",
          "name": "data",
          "type": "bytes"
        }
      ],
      "name": "safeTransferFrom",
      "outputs": [],
      "stateMutability": "nonpayable",
      "type": "function"
    },
    {
      "inputs": [
        {
          "internalType": "address",
          "name": "operator",
          "type": "address"
        },
        {
          "internalType": "bool",
          "name": "approved",
          "type": "bool"
        }
      ],
      "name": "setApprovalForAll",
      "outputs": [],
      "stateMutability": "nonpayable",
      "type": "function"
    },
    {
      "inputs": [
        {
          "internalType": "bytes4",
          "name": "interfaceId",
          "type": "bytes4"
        }
      ],
      "name": "supportsInterface",
      "outputs": [
        {
          "internalType": "bool",
          "name": "",
          "type": "bool"
        }
      ],
      "stateMutability": "view",
      "type": "function"
    },
    {
      "inputs": [],
      "name": "symbol",
      "outputs": [
        {
          "internalType": "string",
          "name": "",
          "type": "string"
        }
      ],
      "stateMutability": "view",
      "type": "function"
    },
    {
      "inputs": [],
      "name": "tokenCount",
      "outputs": [
        {
          "internalType": "uint256",
          "name": "",
          "type": "uint256"
        }
      ],
      "stateMutability": "view",
      "type": "function"
    },
    {
      "inputs": [
        {
          "internalType": "uint256",
          "name": "tokenId",
          "type": "uint256"
        }
      ],
      "name": "tokenURI",
      "outputs": [
        {
          "internalType": "string",
          "name": "",
          "type": "string"
        }
      ],
      "stateMutability": "view",
      "type": "function"
    },
    {
      "inputs": [
        {
          "internalType": "address",
          "name": "from",
          "type": "address"
        },
        {
          "internalType": "address",
          "name": "to",
          "type": "address"
        },
        {
          "internalType": "uint256",
          "name": "tokenId",
          "type": "uint256"
        }
      ],
      "name": "transferFrom",
      "outputs": [],
      "stateMutability": "nonpayable",
      "type": "function"
    },
    {
      "inputs": [
        {
          "internalType": "string",
          "name": "_postHash",
          "type": "string"
        }
      ],
      "name": "uploadPost",
      "outputs": [],
      "stateMutability": "nonpayable",
      "type": "function"
    }
  ],
  "bytecode": "0x60806040523480156200001157600080fd5b506040518060400160405280600b81526020017f536f6369616c70696c6f740000000000000000000000000000000000000000008152506040518060400160405280600481526020017f444150500000000000000000000000000000000000000000000000000000000081525081600090816200008f919062000324565b508060019081620000a1919062000324565b5050506200040b565b600081519050919050565b7f4e487b7100000000000000000000000000000000000000000000000000000000600052604160045260246000fd5b7f4e487b7100000000000000000000000000000000000000000000000000000000600052602260045260246000fd5b600060028204905060018216806200012c57607f821691505b602082108103620001425762000141620000e4565b5b50919050565b60008190508160005260206000209050919050565b60006020601f8301049050919050565b600082821b905092915050565b600060088302620001ac7fffffffffffffffffffffffffffffffffffffffffffffffffffffffffffffffff826200016d565b620001b886836200016d565b95508019841693508086168417925050509392505050565b6000819050919050565b6000819050919050565b600062000205620001ff620001f984620001d0565b620001da565b620001d0565b9050919050565b6000819050919050565b6200022183620001e4565b6200023962000230826200020c565b8484546200017a565b825550505050565b600090565b6200025062000241565b6200025d81848462000216565b505050565b5b8181101562000285576200027960008262000246565b60018101905062000263565b5050565b601f821115620002d4576200029e8162000148565b620002a9846200015d565b81016020851015620002b9578190505b620002d1620002c8856200015d565b83018262000262565b50505b505050565b600082821c905092915050565b6000620002f960001984600802620002d9565b1980831691505092915050565b6000620003148383620002e6565b9150826002028217905092915050565b6200032f82620000aa565b67ffffffffffffffff8111156200034b576200034a620000b5565b5b62000357825462000113565b6200036482828562000289565b600060209050601f8311600181146200039c576000841562000387578287015190505b62000393858262000306565b86555062000403565b601f198416620003ac8662000148565b60005b82811015620003d657848901518255600182019150602085019450602081019050620003af565b86831015620003f65784890151620003f2601f891682620002e6565b8355505b6001600288020188555050505b505050505050565b612f45806200041b6000396000f3fe608060405234801561001057600080fd5b50600436106101165760003560e01c80636352211e116100a2578063a22cb46511610071578063a22cb465146102f8578063b88d4fde14610314578063bdd05adb14610330578063c87b56dd1461034c578063e985e9c51461037c57610116565b80636352211e1461025c57806370a082311461028c57806395d89b41146102bc5780639f181b5e146102da57610116565b80630b1e7f83116100e95780630b1e7f83146101b557806317906c2e146101e857806323b872dd14610206578063305611001461022257806342842e0e1461024057610116565b806301ffc9a71461011b57806306fdde031461014b578063081812fc14610169578063095ea7b314610199575b600080fd5b61013560048036038101906101309190611c1b565b6103ac565b6040516101429190611c63565b60405180910390f35b61015361048e565b6040516101609190611d0e565b60405180910390f35b610183600480360381019061017e9190611d66565b610520565b6040516101909190611dd4565b60405180910390f35b6101b360048036038101906101ae9190611e1b565b610566565b005b6101cf60048036038101906101ca9190611d66565b61067d565b6040516101df9493929190611e8b565b60405180910390f35b6101f0610755565b6040516101fd9190611ed7565b60405180910390f35b610220600480360381019061021b9190611ef2565b61075b565b005b61022a6107bb565b60405161023791906120d2565b60405180910390f35b61025a60048036038101906102559190611ef2565b61097c565b005b61027660048036038101906102719190611d66565b61099c565b6040516102839190611dd4565b60405180910390f35b6102a660048036038101906102a191906120f4565b610a22565b6040516102b39190611ed7565b60405180910390f35b6102c4610ad9565b6040516102d19190611d0e565b60405180910390f35b6102e2610b6b565b6040516102ef9190611ed7565b60405180910390f35b610312600480360381019061030d919061214d565b610b71565b005b61032e600480360381019061032991906122c2565b610b87565b005b61034a600480360381019061034591906123e6565b610be9565b005b61036660048036038101906103619190611d66565b610d0b565b6040516103739190611d0e565b60405180910390f35b6103966004803603810190610391919061242f565b610e1d565b6040516103a39190611c63565b60405180910390f35b60007f80ac58cd000000000000000000000000000000000000000000000000000000007bffffffffffffffffffffffffffffffffffffffffffffffffffffffff1916827bffffffffffffffffffffffffffffffffffffffffffffffffffffffff1916148061047757507f5b5e139f000000000000000000000000000000000000000000000000000000007bffffffffffffffffffffffffffffffffffffffffffffffffffffffff1916827bffffffffffffffffffffffffffffffffffffffffffffffffffffffff1916145b80610487575061048682610eb1565b5b9050919050565b60606000805461049d9061249e565b80601f01602080910402602001604051908101604052809291908181526020018280546104c99061249e565b80156105165780601f106104eb57610100808354040283529160200191610516565b820191906000526020600020905b8154815290600101906020018083116104f957829003601f168201915b5050505050905090565b600061052b82610f1b565b6004600083815260200190815260200160002060009054906101000a900473ffffffffffffffffffffffffffffffffffffffff169050919050565b60006105718261099c565b90508073ffffffffffffffffffffffffffffffffffffffff168373ffffffffffffffffffffffffffffffffffffffff16036105e1576040517f08c379a00000000000000000000000000000000000000000000000000000000081526004016105d890612541565b60405180910390fd5b8073ffffffffffffffffffffffffffffffffffffffff16610600610f66565b73ffffffffffffffffffffffffffffffffffffffff16148061062f575061062e81610629610f66565b610e1d565b5b61066e576040517f08c379a0000000000000000000000000000000000000000000000000000000008152600401610665906125d3565b60405180910390fd5b6106788383610f6e565b505050565b60096020528060005260406000206000915090508060000154908060010180546106a69061249e565b80601f01602080910402602001604051908101604052809291908181526020018280546106d29061249e565b801561071f5780601f106106f45761010080835404028352916020019161071f565b820191906000526020600020905b81548152906001019060200180831161070257829003601f168201915b5050505050908060020154908060030160009054906101000a900473ffffffffffffffffffffffffffffffffffffffff16905084565b60085481565b61076c610766610f66565b82611027565b6107ab576040517f08c379a00000000000000000000000000000000000000000000000000000000081526004016107a290612665565b60405180910390fd5b6107b68383836110bc565b505050565b606060085467ffffffffffffffff8111156107d9576107d8612197565b5b60405190808252806020026020018201604052801561081257816020015b6107ff611b71565b8152602001906001900390816107f75790505b50905060005b8151811015610978576009600060018361083291906126b4565b8152602001908152602001600020604051806080016040529081600082015481526020016001820180546108659061249e565b80601f01602080910402602001604051908101604052809291908181526020018280546108919061249e565b80156108de5780601f106108b3576101008083540402835291602001916108de565b820191906000526020600020905b8154815290600101906020018083116108c157829003601f168201915b50505050508152602001600282015481526020016003820160009054906101000a900473ffffffffffffffffffffffffffffffffffffffff1673ffffffffffffffffffffffffffffffffffffffff1673ffffffffffffffffffffffffffffffffffffffff168152505082828151811061095a576109596126e8565b5b6020026020010181905250808061097090612717565b915050610818565b5090565b61099783838360405180602001604052806000815250610b87565b505050565b6000806109a8836113b5565b9050600073ffffffffffffffffffffffffffffffffffffffff168173ffffffffffffffffffffffffffffffffffffffff1603610a19576040517f08c379a0000000000000000000000000000000000000000000000000000000008152600401610a10906127ab565b60405180910390fd5b80915050919050565b60008073ffffffffffffffffffffffffffffffffffffffff168273ffffffffffffffffffffffffffffffffffffffff1603610a92576040517f08c379a0000000000000000000000000000000000000000000000000000000008152600401610a899061283d565b60405180910390fd5b600360008373ffffffffffffffffffffffffffffffffffffffff1673ffffffffffffffffffffffffffffffffffffffff168152602001908152602001600020549050919050565b606060018054610ae89061249e565b80601f0160208091040260200160405190810160405280929190818152602001828054610b149061249e565b8015610b615780601f10610b3657610100808354040283529160200191610b61565b820191906000526020600020905b815481529060010190602001808311610b4457829003601f168201915b5050505050905090565b60075481565b610b83610b7c610f66565b83836113f2565b5050565b610b98610b92610f66565b83611027565b610bd7576040517f08c379a0000000000000000000000000000000000000000000000000000000008152600401610bce90612665565b60405180910390fd5b610be38484848461155e565b50505050565b6000815111610c2d576040517f08c379a0000000000000000000000000000000000000000000000000000000008152600401610c24906128a9565b60405180910390fd5b60086000815480929190610c4090612717565b919050555060405180608001604052806008548152602001828152602001600081526020013373ffffffffffffffffffffffffffffffffffffffff16815250600960006008548152602001908152602001600020600082015181600001556020820151816001019081610cb39190612a75565b506040820151816002015560608201518160030160006101000a81548173ffffffffffffffffffffffffffffffffffffffff021916908373ffffffffffffffffffffffffffffffffffffffff16021790555090505050565b6060610d1682610f1b565b6000600660008481526020019081526020016000208054610d369061249e565b80601f0160208091040260200160405190810160405280929190818152602001828054610d629061249e565b8015610daf5780601f10610d8457610100808354040283529160200191610daf565b820191906000526020600020905b815481529060010190602001808311610d9257829003601f168201915b505050505090506000610dc06115ba565b90506000815103610dd5578192505050610e18565b600082511115610e0a578082604051602001610df2929190612b83565b60405160208183030381529060405292505050610e18565b610e13846115d1565b925050505b919050565b6000600560008473ffffffffffffffffffffffffffffffffffffffff1673ffffffffffffffffffffffffffffffffffffffff16815260200190815260200160002060008373ffffffffffffffffffffffffffffffffffffffff1673ffffffffffffffffffffffffffffffffffffffff16815260200190815260200160002060009054906101000a900460ff16905092915050565b60007f01ffc9a7000000000000000000000000000000000000000000000000000000007bffffffffffffffffffffffffffffffffffffffffffffffffffffffff1916827bffffffffffffffffffffffffffffffffffffffffffffffffffffffff1916149050919050565b610f2481611639565b610f63576040517f08c379a0000000000000000000000000000000000000000000000000000000008152600401610f5a906127ab565b60405180910390fd5b50565b600033905090565b816004600083815260200190815260200160002060006101000a81548173ffffffffffffffffffffffffffffffffffffffff021916908373ffffffffffffffffffffffffffffffffffffffff160217905550808273ffffffffffffffffffffffffffffffffffffffff16610fe18361099c565b73ffffffffffffffffffffffffffffffffffffffff167f8c5be1e5ebec7d5bd14f71427d1e84f3dd0314c0f7b2291e5b200ac8c7c3b92560405160405180910390a45050565b6000806110338361099c565b90508073ffffffffffffffffffffffffffffffffffffffff168473ffffffffffffffffffffffffffffffffffffffff16148061107557506110748185610e1d565b5b806110b357508373ffffffffffffffffffffffffffffffffffffffff1661109b84610520565b73ffffffffffffffffffffffffffffffffffffffff16145b91505092915050565b8273ffffffffffffffffffffffffffffffffffffffff166110dc8261099c565b73ffffffffffffffffffffffffffffffffffffffff1614611132576040517f08c379a000000000000000000000000000000000000000000000000000000000815260040161112990612c19565b60405180910390fd5b600073ffffffffffffffffffffffffffffffffffffffff168273ffffffffffffffffffffffffffffffffffffffff16036111a1576040517f08c379a000000000000000000000000000000000000000000000000000000000815260040161119890612cab565b60405180910390fd5b6111ae838383600161167a565b8273ffffffffffffffffffffffffffffffffffffffff166111ce8261099c565b73ffffffffffffffffffffffffffffffffffffffff1614611224576040517f08c379a000000000000000000000000000000000000000000000000000000000815260040161121b90612c19565b60405180910390fd5b6004600082815260200190815260200160002060006101000a81549073ffffffffffffffffffffffffffffffffffffffff02191690556001600360008573ffffffffffffffffffffffffffffffffffffffff1673ffffffffffffffffffffffffffffffffffffffff168152602001908152602001600020600082825403925050819055506001600360008473ffffffffffffffffffffffffffffffffffffffff1673ffffffffffffffffffffffffffffffffffffffff16815260200190815260200160002060008282540192505081905550816002600083815260200190815260200160002060006101000a81548173ffffffffffffffffffffffffffffffffffffffff021916908373ffffffffffffffffffffffffffffffffffffffff160217905550808273ffffffffffffffffffffffffffffffffffffffff168473ffffffffffffffffffffffffffffffffffffffff167fddf252ad1be2c89b69c2b068fc378daa952ba7f163c4a11628f55a4df523b3ef60405160405180910390a46113b083838360016117a0565b505050565b60006002600083815260200190815260200160002060009054906101000a900473ffffffffffffffffffffffffffffffffffffffff169050919050565b8173ffffffffffffffffffffffffffffffffffffffff168373ffffffffffffffffffffffffffffffffffffffff1603611460576040517f08c379a000000000000000000000000000000000000000000000000000000000815260040161145790612d17565b60405180910390fd5b80600560008573ffffffffffffffffffffffffffffffffffffffff1673ffffffffffffffffffffffffffffffffffffffff16815260200190815260200160002060008473ffffffffffffffffffffffffffffffffffffffff1673ffffffffffffffffffffffffffffffffffffffff16815260200190815260200160002060006101000a81548160ff0219169083151502179055508173ffffffffffffffffffffffffffffffffffffffff168373ffffffffffffffffffffffffffffffffffffffff167f17307eab39ab6107e8899845ad3d59bd9653f200f220920489ca2b5937696c31836040516115519190611c63565b60405180910390a3505050565b6115698484846110bc565b611575848484846117a6565b6115b4576040517f08c379a00000000000000000000000000000000000000000000000000000000081526004016115ab90612da9565b60405180910390fd5b50505050565b606060405180602001604052806000815250905090565b60606115dc82610f1b565b60006115e66115ba565b905060008151116116065760405180602001604052806000815250611631565b806116108461192d565b604051602001611621929190612b83565b6040516020818303038152906040525b915050919050565b60008073ffffffffffffffffffffffffffffffffffffffff1661165b836113b5565b73ffffffffffffffffffffffffffffffffffffffff1614159050919050565b600181111561179a57600073ffffffffffffffffffffffffffffffffffffffff168473ffffffffffffffffffffffffffffffffffffffff161461170e5780600360008673ffffffffffffffffffffffffffffffffffffffff1673ffffffffffffffffffffffffffffffffffffffff16815260200190815260200160002060008282546117069190612dc9565b925050819055505b600073ffffffffffffffffffffffffffffffffffffffff168373ffffffffffffffffffffffffffffffffffffffff16146117995780600360008573ffffffffffffffffffffffffffffffffffffffff1673ffffffffffffffffffffffffffffffffffffffff168152602001908152602001600020600082825461179191906126b4565b925050819055505b5b50505050565b50505050565b60006117c78473ffffffffffffffffffffffffffffffffffffffff166119fb565b15611920578373ffffffffffffffffffffffffffffffffffffffff1663150b7a026117f0610f66565b8786866040518563ffffffff1660e01b81526004016118129493929190612e52565b6020604051808303816000875af192505050801561184e57506040513d601f19601f8201168201806040525081019061184b9190612eb3565b60015b6118d0573d806000811461187e576040519150601f19603f3d011682016040523d82523d6000602084013e611883565b606091505b5060008151036118c8576040517f08c379a00000000000000000000000000000000000000000000000000000000081526004016118bf90612da9565b60405180910390fd5b805181602001fd5b63150b7a0260e01b7bffffffffffffffffffffffffffffffffffffffffffffffffffffffff1916817bffffffffffffffffffffffffffffffffffffffffffffffffffffffff191614915050611925565b600190505b949350505050565b60606000600161193c84611a1e565b01905060008167ffffffffffffffff81111561195b5761195a612197565b5b6040519080825280601f01601f19166020018201604052801561198d5781602001600182028036833780820191505090505b509050600082602001820190505b6001156119f0578080600190039150507f3031323334353637383961626364656600000000000000000000000000000000600a86061a8153600a85816119e4576119e3612ee0565b5b0494506000850361199b575b819350505050919050565b6000808273ffffffffffffffffffffffffffffffffffffffff163b119050919050565b600080600090507a184f03e93ff9f4daa797ed6e38ed64bf6a1f0100000000000000008310611a7c577a184f03e93ff9f4daa797ed6e38ed64bf6a1f0100000000000000008381611a7257611a71612ee0565b5b0492506040810190505b6d04ee2d6d415b85acef81000000008310611ab9576d04ee2d6d415b85acef81000000008381611aaf57611aae612ee0565b5b0492506020810190505b662386f26fc100008310611ae857662386f26fc100008381611ade57611add612ee0565b5b0492506010810190505b6305f5e1008310611b11576305f5e1008381611b0757611b06612ee0565b5b0492506008810190505b6127108310611b36576127108381611b2c57611b2b612ee0565b5b0492506004810190505b60648310611b595760648381611b4f57611b4e612ee0565b5b0492506002810190505b600a8310611b68576001810190505b80915050919050565b6040518060800160405280600081526020016060815260200160008152602001600073ffffffffffffffffffffffffffffffffffffffff1681525090565b6000604051905090565b600080fd5b600080fd5b60007fffffffff0000000000000000000000000000000000000000000000000000000082169050919050565b611bf881611bc3565b8114611c0357600080fd5b50565b600081359050611c1581611bef565b92915050565b600060208284031215611c3157611c30611bb9565b5b6000611c3f84828501611c06565b91505092915050565b60008115159050919050565b611c5d81611c48565b82525050565b6000602082019050611c786000830184611c54565b92915050565b600081519050919050565b600082825260208201905092915050565b60005b83811015611cb8578082015181840152602081019050611c9d565b60008484015250505050565b6000601f19601f8301169050919050565b6000611ce082611c7e565b611cea8185611c89565b9350611cfa818560208601611c9a565b611d0381611cc4565b840191505092915050565b60006020820190508181036000830152611d288184611cd5565b905092915050565b6000819050919050565b611d4381611d30565b8114611d4e57600080fd5b50565b600081359050611d6081611d3a565b92915050565b600060208284031215611d7c57611d7b611bb9565b5b6000611d8a84828501611d51565b91505092915050565b600073ffffffffffffffffffffffffffffffffffffffff82169050919050565b6000611dbe82611d93565b9050919050565b611dce81611db3565b82525050565b6000602082019050611de96000830184611dc5565b92915050565b611df881611db3565b8114611e0357600080fd5b50565b600081359050611e1581611def565b92915050565b60008060408385031215611e3257611e31611bb9565b5b6000611e4085828601611e06565b9250506020611e5185828601611d51565b9150509250929050565b611e6481611d30565b82525050565b6000611e7582611d93565b9050919050565b611e8581611e6a565b82525050565b6000608082019050611ea06000830187611e5b565b8181036020830152611eb28186611cd5565b9050611ec16040830185611e5b565b611ece6060830184611e7c565b95945050505050565b6000602082019050611eec6000830184611e5b565b92915050565b600080600060608486031215611f0b57611f0a611bb9565b5b6000611f1986828701611e06565b9350506020611f2a86828701611e06565b9250506040611f3b86828701611d51565b9150509250925092565b600081519050919050565b600082825260208201905092915050565b6000819050602082019050919050565b611f7a81611d30565b82525050565b600082825260208201905092915050565b6000611f9c82611c7e565b611fa68185611f80565b9350611fb6818560208601611c9a565b611fbf81611cc4565b840191505092915050565b611fd381611e6a565b82525050565b6000608083016000830151611ff16000860182611f71565b50602083015184820360208601526120098282611f91565b915050604083015161201e6040860182611f71565b5060608301516120316060860182611fca565b508091505092915050565b60006120488383611fd9565b905092915050565b6000602082019050919050565b600061206882611f45565b6120728185611f50565b93508360208202850161208485611f61565b8060005b858110156120c057848403895281516120a1858261203c565b94506120ac83612050565b925060208a01995050600181019050612088565b50829750879550505050505092915050565b600060208201905081810360008301526120ec818461205d565b905092915050565b60006020828403121561210a57612109611bb9565b5b600061211884828501611e06565b91505092915050565b61212a81611c48565b811461213557600080fd5b50565b60008135905061214781612121565b92915050565b6000806040838503121561216457612163611bb9565b5b600061217285828601611e06565b925050602061218385828601612138565b9150509250929050565b600080fd5b600080fd5b7f4e487b7100000000000000000000000000000000000000000000000000000000600052604160045260246000fd5b6121cf82611cc4565b810181811067ffffffffffffffff821117156121ee576121ed612197565b5b80604052505050565b6000612201611baf565b905061220d82826121c6565b919050565b600067ffffffffffffffff82111561222d5761222c612197565b5b61223682611cc4565b9050602081019050919050565b82818337600083830152505050565b600061226561226084612212565b6121f7565b90508281526020810184848401111561228157612280612192565b5b61228c848285612243565b509392505050565b600082601f8301126122a9576122a861218d565b5b81356122b9848260208601612252565b91505092915050565b600080600080608085870312156122dc576122db611bb9565b5b60006122ea87828801611e06565b94505060206122fb87828801611e06565b935050604061230c87828801611d51565b925050606085013567ffffffffffffffff81111561232d5761232c611bbe565b5b61233987828801612294565b91505092959194509250565b600067ffffffffffffffff8211156123605761235f612197565b5b61236982611cc4565b9050602081019050919050565b600061238961238484612345565b6121f7565b9050828152602081018484840111156123a5576123a4612192565b5b6123b0848285612243565b509392505050565b600082601f8301126123cd576123cc61218d565b5b81356123dd848260208601612376565b91505092915050565b6000602082840312156123fc576123fb611bb9565b5b600082013567ffffffffffffffff81111561241a57612419611bbe565b5b612426848285016123b8565b91505092915050565b6000806040838503121561244657612445611bb9565b5b600061245485828601611e06565b925050602061246585828601611e06565b9150509250929050565b7f4e487b7100000000000000000000000000000000000000000000000000000000600052602260045260246000fd5b600060028204905060018216806124b657607f821691505b6020821081036124c9576124c861246f565b5b50919050565b7f4552433732313a20617070726f76616c20746f2063757272656e74206f776e6560008201527f7200000000000000000000000000000000000000000000000000000000000000602082015250565b600061252b602183611c89565b9150612536826124cf565b604082019050919050565b6000602082019050818103600083015261255a8161251e565b9050919050565b7f4552433732313a20617070726f76652063616c6c6572206973206e6f7420746f60008201527f6b656e206f776e6572206f7220617070726f76656420666f7220616c6c000000602082015250565b60006125bd603d83611c89565b91506125c882612561565b604082019050919050565b600060208201905081810360008301526125ec816125b0565b9050919050565b7f4552433732313a2063616c6c6572206973206e6f7420746f6b656e206f776e6560008201527f72206f7220617070726f76656400000000000000000000000000000000000000602082015250565b600061264f602d83611c89565b915061265a826125f3565b604082019050919050565b6000602082019050818103600083015261267e81612642565b9050919050565b7f4e487b7100000000000000000000000000000000000000000000000000000000600052601160045260246000fd5b60006126bf82611d30565b91506126ca83611d30565b92508282019050808211156126e2576126e1612685565b5b92915050565b7f4e487b7100000000000000000000000000000000000000000000000000000000600052603260045260246000fd5b600061272282611d30565b91507fffffffffffffffffffffffffffffffffffffffffffffffffffffffffffffffff820361275457612753612685565b5b600182019050919050565b7f4552433732313a20696e76616c696420746f6b656e2049440000000000000000600082015250565b6000612795601883611c89565b91506127a08261275f565b602082019050919050565b600060208201905081810360008301526127c481612788565b9050919050565b7f4552433732313a2061646472657373207a65726f206973206e6f74206120766160008201527f6c6964206f776e65720000000000000000000000000000000000000000000000602082015250565b6000612827602983611c89565b9150612832826127cb565b604082019050919050565b600060208201905081810360008301526128568161281a565b9050919050565b7f43616e6e6f74207061737320616e20656d707479206861736800000000000000600082015250565b6000612893601983611c89565b915061289e8261285d565b602082019050919050565b600060208201905081810360008301526128c281612886565b9050919050565b60008190508160005260206000209050919050565b60006020601f8301049050919050565b600082821b905092915050565b60006008830261292b7fffffffffffffffffffffffffffffffffffffffffffffffffffffffffffffffff826128ee565b61293586836128ee565b95508019841693508086168417925050509392505050565b6000819050919050565b600061297261296d61296884611d30565b61294d565b611d30565b9050919050565b6000819050919050565b61298c83612957565b6129a061299882612979565b8484546128fb565b825550505050565b600090565b6129b56129a8565b6129c0818484612983565b505050565b5b818110156129e4576129d96000826129ad565b6001810190506129c6565b5050565b601f821115612a29576129fa816128c9565b612a03846128de565b81016020851015612a12578190505b612a26612a1e856128de565b8301826129c5565b50505b505050565b600082821c905092915050565b6000612a4c60001984600802612a2e565b1980831691505092915050565b6000612a658383612a3b565b9150826002028217905092915050565b612a7e82611c7e565b67ffffffffffffffff811115612a9757612a96612197565b5b612aa1825461249e565b612aac8282856129e8565b600060209050601f831160018114612adf5760008415612acd578287015190505b612ad78582612a59565b865550612b3f565b601f198416612aed866128c9565b60005b82811015612b1557848901518255600182019150602085019450602081019050612af0565b86831015612b325784890151612b2e601f891682612a3b565b8355505b6001600288020188555050505b505050505050565b600081905092915050565b6000612b5d82611c7e565b612b678185612b47565b9350612b77818560208601611c9a565b80840191505092915050565b6000612b8f8285612b52565b9150612b9b8284612b52565b91508190509392505050565b7f4552433732313a207472616e736665722066726f6d20696e636f72726563742060008201527f6f776e6572000000000000000000000000000000000000000000000000000000602082015250565b6000612c03602583611c89565b9150612c0e82612ba7565b604082019050919050565b60006020820190508181036000830152612c3281612bf6565b9050919050565b7f4552433732313a207472616e7366657220746f20746865207a65726f2061646460008201527f7265737300000000000000000000000000000000000000000000000000000000602082015250565b6000612c95602483611c89565b9150612ca082612c39565b604082019050919050565b60006020820190508181036000830152612cc481612c88565b9050919050565b7f4552433732313a20617070726f766520746f2063616c6c657200000000000000600082015250565b6000612d01601983611c89565b9150612d0c82612ccb565b602082019050919050565b60006020820190508181036000830152612d3081612cf4565b9050919050565b7f4552433732313a207472616e7366657220746f206e6f6e20455243373231526560008201527f63656976657220696d706c656d656e7465720000000000000000000000000000602082015250565b6000612d93603283611c89565b9150612d9e82612d37565b604082019050919050565b60006020820190508181036000830152612dc281612d86565b9050919050565b6000612dd482611d30565b9150612ddf83611d30565b9250828203905081811115612df757612df6612685565b5b92915050565b600081519050919050565b600082825260208201905092915050565b6000612e2482612dfd565b612e2e8185612e08565b9350612e3e818560208601611c9a565b612e4781611cc4565b840191505092915050565b6000608082019050612e676000830187611dc5565b612e746020830186611dc5565b612e816040830185611e5b565b8181036060830152612e938184612e19565b905095945050505050565b600081519050612ead81611bef565b92915050565b600060208284031215612ec957612ec8611bb9565b5b6000612ed784828501612e9e565b91505092915050565b7f4e487b7100000000000000000000000000000000000000000000000000000000600052601260045260246000fdfea26469706673582212209dd53c75f7cbbf4c2b72a34f6fb74ca01ba3f49845912cd2dffd4ea825484e1164736f6c63430008110033",
  "linkReferences": {},
  "deployedLinkReferences": {}
}